{
  "contractName": "Hydrochain",
  "abi": [
    {
      "anonymous": false,
      "inputs": [
        {
          "indexed": false,
          "internalType": "address payable",
          "name": "deployer",
          "type": "address"
        },
        {
          "indexed": false,
          "internalType": "address payable",
          "name": "user",
          "type": "address"
        },
        {
          "indexed": false,
          "internalType": "uint256",
          "name": "amount",
          "type": "uint256"
        }
      ],
      "name": "billPaid",
      "type": "event"
    },
    {
      "anonymous": false,
      "inputs": [
        {
          "indexed": false,
          "internalType": "address payable",
          "name": "userAddress",
          "type": "address"
        },
        {
          "indexed": false,
          "internalType": "uint256",
          "name": "units",
          "type": "uint256"
        }
      ],
      "name": "unitsAdded",
      "type": "event"
    },
    {
      "anonymous": false,
      "inputs": [
        {
          "indexed": false,
          "internalType": "uint256",
          "name": "id",
          "type": "uint256"
        },
        {
          "indexed": false,
          "internalType": "address payable",
          "name": "userAddress",
          "type": "address"
        },
        {
          "indexed": false,
          "internalType": "uint256",
          "name": "units",
          "type": "uint256"
        }
      ],
      "name": "userInitialized",
      "type": "event"
    },
    {
      "constant": true,
      "inputs": [],
      "name": "uCount",
      "outputs": [
        {
          "internalType": "uint256",
          "name": "",
          "type": "uint256"
        }
      ],
      "payable": false,
      "stateMutability": "view",
      "type": "function"
    },
    {
      "constant": true,
      "inputs": [
        {
          "internalType": "uint256",
          "name": "",
          "type": "uint256"
        }
      ],
      "name": "users",
      "outputs": [
        {
          "internalType": "address payable",
          "name": "userAddress",
          "type": "address"
        },
        {
          "internalType": "uint256",
          "name": "units",
          "type": "uint256"
        }
      ],
      "payable": false,
      "stateMutability": "view",
      "type": "function"
    },
    {
      "constant": false,
      "inputs": [],
      "name": "initializeUser",
      "outputs": [],
      "payable": false,
      "stateMutability": "nonpayable",
      "type": "function"
    },
    {
      "constant": false,
      "inputs": [
        {
          "internalType": "uint256",
          "name": "_units",
          "type": "uint256"
        }
      ],
      "name": "addUnit",
      "outputs": [],
      "payable": false,
      "stateMutability": "nonpayable",
      "type": "function"
    },
    {
      "constant": false,
      "inputs": [],
      "name": "payBill",
      "outputs": [],
      "payable": true,
      "stateMutability": "payable",
      "type": "function"
    }
  ],
  "bytecode": "0x60806040526000805534801561001457600080fd5b506107d7806100246000396000f3fe60806040526004361061004a5760003560e01c8063341dc9f31461004f578063365b98b21461008a5780634b3538881461010c5780637a781658146101235780637bc8924b1461012d575b600080fd5b34801561005b57600080fd5b506100886004803603602081101561007257600080fd5b8101908080359060200190929190505050610158565b005b34801561009657600080fd5b506100c3600480360360208110156100ad57600080fd5b8101908080359060200190929190505050610360565b604051808373ffffffffffffffffffffffffffffffffffffffff1673ffffffffffffffffffffffffffffffffffffffff1681526020018281526020019250505060405180910390f35b34801561011857600080fd5b506101216103a4565b005b61012b6104c1565b005b34801561013957600080fd5b5061014261076c565b6040518082815260200191505060405180910390f35b600081101561016657600080fd5b6000610170610772565b600191505b6000548211610278573373ffffffffffffffffffffffffffffffffffffffff166001600084815260200190815260200160002060000160009054906101000a900473ffffffffffffffffffffffffffffffffffffffff1673ffffffffffffffffffffffffffffffffffffffff16141561026d57600160008381526020019081526020016000206040518060400160405290816000820160009054906101000a900473ffffffffffffffffffffffffffffffffffffffff1673ffffffffffffffffffffffffffffffffffffffff1673ffffffffffffffffffffffffffffffffffffffff1681526020016001820154815250509050610278565b816001019150610175565b82816020015101816020018181525050806001600084815260200190815260200160002060008201518160000160006101000a81548173ffffffffffffffffffffffffffffffffffffffff021916908373ffffffffffffffffffffffffffffffffffffffff160217905550602082015181600101559050507f67e297ce148baa913004962a221038182733513c90bed1844b68af987d2793503384604051808373ffffffffffffffffffffffffffffffffffffffff1673ffffffffffffffffffffffffffffffffffffffff1681526020018281526020019250505060405180910390a1505050565b60016020528060005260406000206000915090508060000160009054906101000a900473ffffffffffffffffffffffffffffffffffffffff16908060010154905082565b600080815480929190600101919050555060405180604001604052803373ffffffffffffffffffffffffffffffffffffffff1681526020016000815250600160008054815260200190815260200160002060008201518160000160006101000a81548173ffffffffffffffffffffffffffffffffffffffff021916908373ffffffffffffffffffffffffffffffffffffffff160217905550602082015181600101559050507fdee422879ee893c447f80ab59301c0983b5967aa619d66ddb326481b6efe2baa600054336000604051808481526020018373ffffffffffffffffffffffffffffffffffffffff1673ffffffffffffffffffffffffffffffffffffffff168152602001828152602001935050505060405180910390a1565b60006001600080815260200190815260200160002060000160009054906101000a900473ffffffffffffffffffffffffffffffffffffffff1690508073ffffffffffffffffffffffffffffffffffffffff166108fc349081150290604051600060405180830381858888f19350505050158015610542573d6000803e3d6000fd5b50600061054d610772565b600191505b6000548211610655573373ffffffffffffffffffffffffffffffffffffffff166001600084815260200190815260200160002060000160009054906101000a900473ffffffffffffffffffffffffffffffffffffffff1673ffffffffffffffffffffffffffffffffffffffff16141561064a57600160008381526020019081526020016000206040518060400160405290816000820160009054906101000a900473ffffffffffffffffffffffffffffffffffffffff1673ffffffffffffffffffffffffffffffffffffffff1673ffffffffffffffffffffffffffffffffffffffff1681526020016001820154815250509050610655565b816001019150610552565b6000816020018181525050806001600084815260200190815260200160002060008201518160000160006101000a81548173ffffffffffffffffffffffffffffffffffffffff021916908373ffffffffffffffffffffffffffffffffffffffff160217905550602082015181600101559050507fc217499589f3ec1d5b2891594c80d8e6493c0ea24a503908b460cc5a806e9f69833334604051808473ffffffffffffffffffffffffffffffffffffffff1673ffffffffffffffffffffffffffffffffffffffff1681526020018373ffffffffffffffffffffffffffffffffffffffff1673ffffffffffffffffffffffffffffffffffffffff168152602001828152602001935050505060405180910390a1505050565b60005481565b6040518060400160405280600073ffffffffffffffffffffffffffffffffffffffff16815260200160008152509056fea265627a7a72315820fe33a34b476f71d54d2d7e3ba125e8416436330596af8f1f6c9fe100937892c764736f6c63430005100032",
  "source": "pragma solidity ^0.5.0;\r\n\r\ncontract Hydrochain {\r\n    uint public uCount=0;\r\n    mapping(uint => User) public users;\r\n\r\n    struct User {\r\n        address payable userAddress;\r\n        uint units;\r\n    }\r\n\r\n    event userInitialized(\r\n        uint id,\r\n        address payable userAddress, \r\n        uint units\r\n    );\r\n\r\n    event unitsAdded (\r\n        address payable userAddress, \r\n        uint units\r\n    );\r\n\r\n    event billPaid (\r\n        address payable deployer,\r\n        address payable user,\r\n        uint amount\r\n    );\r\n\r\n    function initializeUser() public {\r\n        uCount++;\r\n        users[uCount] = User(msg.sender, 0);\r\n        emit userInitialized(uCount, msg.sender, 0);\r\n    }\r\n\r\n    function addUnit(uint _units) public {\r\n        require(_units >= 0);\r\n        uint _i;\r\n        User memory _user;\r\n        for(_i=1;_i<=uCount;++_i)\r\n            if(users[_i].userAddress==msg.sender){\r\n                _user=users[_i];\r\n                break;\r\n            }\r\n        _user.units = _user.units + _units;\r\n        users[_i] = _user;\r\n        emit unitsAdded(msg.sender,_units);\r\n    }\r\n\r\n    function payBill() public payable {\r\n        address payable _deployer = users[0].userAddress;\r\n        address(_deployer).transfer(msg.value);\r\n        uint _i;\r\n        User memory _user;\r\n        for(_i=1;_i<=uCount;++_i)\r\n            if(users[_i].userAddress==msg.sender){\r\n                _user=users[_i];\r\n                break;\r\n            }\r\n        _user.units=0;\r\n        users[_i] = _user;\r\n        emit billPaid(_deployer,msg.sender,msg.value);\r\n    }\r\n}\r\n\r\n",
  "sourcePath": "E:\\CS\\Hackathons\\Devfolio online\\HackInOut\\new\\Hydro-chain\\Hydro-chain DApp\\src\\contracts\\Hydrochain.sol",
  "compiler": {
    "name": "solc",
    "version": "0.5.16+commit.9c3226ce.Emscripten.clang"
  },
  "schemaVersion": "3.2.0",
  "updatedAt": "2020-12-13T17:28:47.357Z",
  "networkType": "ethereum",
  "devdoc": {
    "methods": {}
  },
  "userdoc": {
    "methods": {}
  }
}