{
  "contractName": "Hydrochain",
  "abi": [
    {
      "anonymous": false,
      "inputs": [
        {
          "indexed": false,
          "internalType": "address payable",
          "name": "deployer",
          "type": "address"
        },
        {
          "indexed": false,
          "internalType": "address payable",
          "name": "user",
          "type": "address"
        },
        {
          "indexed": false,
          "internalType": "string",
          "name": "lastDate",
          "type": "string"
        },
        {
          "indexed": false,
          "internalType": "uint256",
          "name": "amount",
          "type": "uint256"
        }
      ],
      "name": "billPaid",
      "type": "event"
    },
    {
      "anonymous": false,
      "inputs": [
        {
          "indexed": false,
          "internalType": "address payable",
          "name": "userAddress",
          "type": "address"
        },
        {
          "indexed": false,
          "internalType": "uint256",
          "name": "tunits",
          "type": "uint256"
        },
        {
          "indexed": false,
          "internalType": "uint256",
          "name": "cunits",
          "type": "uint256"
        }
      ],
      "name": "unitsAdded",
      "type": "event"
    },
    {
      "anonymous": false,
      "inputs": [
        {
          "indexed": false,
          "internalType": "uint256",
          "name": "id",
          "type": "uint256"
        },
        {
          "indexed": false,
          "internalType": "address payable",
          "name": "userAddress",
          "type": "address"
        },
        {
          "indexed": false,
          "internalType": "string",
          "name": "lastDate",
          "type": "string"
        },
        {
          "indexed": false,
          "internalType": "uint256",
          "name": "tunits",
          "type": "uint256"
        },
        {
          "indexed": false,
          "internalType": "uint256",
          "name": "cunits",
          "type": "uint256"
        }
      ],
      "name": "userInitialized",
      "type": "event"
    },
    {
      "constant": true,
      "inputs": [],
      "name": "admin",
      "outputs": [
        {
          "internalType": "address payable",
          "name": "",
          "type": "address"
        }
      ],
      "payable": false,
      "stateMutability": "view",
      "type": "function"
    },
    {
      "constant": true,
      "inputs": [],
      "name": "uCount",
      "outputs": [
        {
          "internalType": "uint256",
          "name": "",
          "type": "uint256"
        }
      ],
      "payable": false,
      "stateMutability": "view",
      "type": "function"
    },
    {
      "constant": true,
      "inputs": [
        {
          "internalType": "uint256",
          "name": "",
          "type": "uint256"
        }
      ],
      "name": "users",
      "outputs": [
        {
          "internalType": "address payable",
          "name": "userAddress",
          "type": "address"
        },
        {
          "internalType": "string",
          "name": "lastDate",
          "type": "string"
        },
        {
          "internalType": "uint256",
          "name": "tunits",
          "type": "uint256"
        },
        {
          "internalType": "uint256",
          "name": "cunits",
          "type": "uint256"
        }
      ],
      "payable": false,
      "stateMutability": "view",
      "type": "function"
    },
    {
      "constant": false,
      "inputs": [],
      "name": "initializeUser",
      "outputs": [],
      "payable": false,
      "stateMutability": "nonpayable",
      "type": "function"
    },
    {
      "constant": false,
      "inputs": [
        {
          "internalType": "uint256",
          "name": "_units",
          "type": "uint256"
        }
      ],
      "name": "addUnit",
      "outputs": [],
      "payable": false,
      "stateMutability": "nonpayable",
      "type": "function"
    },
    {
      "constant": false,
      "inputs": [
        {
          "internalType": "string",
          "name": "_date",
          "type": "string"
        }
      ],
      "name": "payBill",
      "outputs": [],
      "payable": true,
      "stateMutability": "payable",
      "type": "function"
    }
  ],
  "bytecode": "0x6080604052739726ae8e5a253cc42665ab37f8d3364a261323f46000806101000a81548173ffffffffffffffffffffffffffffffffffffffff021916908373ffffffffffffffffffffffffffffffffffffffff160217905550600060015534801561006957600080fd5b50610db6806100796000396000f3fe6080604052600436106100555760003560e01c8063070abcc21461005a578063341dc9f314610115578063365b98b2146101505780634b353888146102455780637bc8924b1461025c578063f851a44014610287575b600080fd5b6101136004803603602081101561007057600080fd5b810190808035906020019064010000000081111561008d57600080fd5b82018360208201111561009f57600080fd5b803590602001918460018302840111640100000000831117156100c157600080fd5b91908080601f016020809104026020016040519081016040528093929190818152602001838380828437600081840152601f19601f8201169050808301925050505050505091929192905050506102de565b005b34801561012157600080fd5b5061014e6004803603602081101561013857600080fd5b81019080803590602001909291905050506106be565b005b34801561015c57600080fd5b506101896004803603602081101561017357600080fd5b81019080803590602001909291905050506109c2565b604051808573ffffffffffffffffffffffffffffffffffffffff1673ffffffffffffffffffffffffffffffffffffffff16815260200180602001848152602001838152602001828103825285818151815260200191508051906020019080838360005b838110156102075780820151818401526020810190506101ec565b50505050905090810190601f1680156102345780820380516001836020036101000a031916815260200191505b509550505050505060405180910390f35b34801561025157600080fd5b5061025a610aaa565b005b34801561026857600080fd5b50610271610c73565b6040518082815260200191505060405180910390f35b34801561029357600080fd5b5061029c610c79565b604051808273ffffffffffffffffffffffffffffffffffffffff1673ffffffffffffffffffffffffffffffffffffffff16815260200191505060405180910390f35b60008060009054906101000a900473ffffffffffffffffffffffffffffffffffffffff1690508073ffffffffffffffffffffffffffffffffffffffff166108fc349081150290604051600060405180830381858888f1935050505015801561034a573d6000803e3d6000fd5b506000610355610c9e565b600191505b6001548211610509573373ffffffffffffffffffffffffffffffffffffffff166002600084815260200190815260200160002060000160009054906101000a900473ffffffffffffffffffffffffffffffffffffffff1673ffffffffffffffffffffffffffffffffffffffff1614156104fe57600260008381526020019081526020016000206040518060800160405290816000820160009054906101000a900473ffffffffffffffffffffffffffffffffffffffff1673ffffffffffffffffffffffffffffffffffffffff1673ffffffffffffffffffffffffffffffffffffffff168152602001600182018054600181600116156101000203166002900480601f0160208091040260200160405190810160405280929190818152602001828054600181600116156101000203166002900480156104da5780601f106104af576101008083540402835291602001916104da565b820191906000526020600020905b8154815290600101906020018083116104bd57829003601f168201915b50505050508152602001600282015481526020016003820154815250509050610509565b81600101915061035a565b6000816060018181525050838160200181905250806002600084815260200190815260200160002060008201518160000160006101000a81548173ffffffffffffffffffffffffffffffffffffffff021916908373ffffffffffffffffffffffffffffffffffffffff1602179055506020820151816001019080519060200190610594929190610cdc565b5060408201518160020155606082015181600301559050507f424a0d883f50807376fd447c4d2d537349157397f3817a0e4cd0dcd594d81a3383338634604051808573ffffffffffffffffffffffffffffffffffffffff1673ffffffffffffffffffffffffffffffffffffffff1681526020018473ffffffffffffffffffffffffffffffffffffffff1673ffffffffffffffffffffffffffffffffffffffff16815260200180602001838152602001828103825284818151815260200191508051906020019080838360005b8381101561067b578082015181840152602081019050610660565b50505050905090810190601f1680156106a85780820380516001836020036101000a031916815260200191505b509550505050505060405180910390a150505050565b60008110156106cc57600080fd5b60006106d6610c9e565b600191505b600154821161088a573373ffffffffffffffffffffffffffffffffffffffff166002600084815260200190815260200160002060000160009054906101000a900473ffffffffffffffffffffffffffffffffffffffff1673ffffffffffffffffffffffffffffffffffffffff16141561087f57600260008381526020019081526020016000206040518060800160405290816000820160009054906101000a900473ffffffffffffffffffffffffffffffffffffffff1673ffffffffffffffffffffffffffffffffffffffff1673ffffffffffffffffffffffffffffffffffffffff168152602001600182018054600181600116156101000203166002900480601f01602080910402602001604051908101604052809291908181526020018280546001816001161561010002031660029004801561085b5780601f106108305761010080835404028352916020019161085b565b820191906000526020600020905b81548152906001019060200180831161083e57829003601f168201915b5050505050815260200160028201548152602001600382015481525050905061088a565b8160010191506106db565b80604001518311156108b75780604001518303816060018181510191508181525050828160400181815250505b806002600084815260200190815260200160002060008201518160000160006101000a81548173ffffffffffffffffffffffffffffffffffffffff021916908373ffffffffffffffffffffffffffffffffffffffff160217905550602082015181600101908051906020019061092e929190610cdc565b5060408201518160020155606082015181600301559050507fb726d633763890959f84370289b530da7d8a9557dcf86d879616175b5028c83f33848360600151604051808473ffffffffffffffffffffffffffffffffffffffff1673ffffffffffffffffffffffffffffffffffffffff168152602001838152602001828152602001935050505060405180910390a1505050565b60026020528060005260406000206000915090508060000160009054906101000a900473ffffffffffffffffffffffffffffffffffffffff1690806001018054600181600116156101000203166002900480601f016020809104026020016040519081016040528092919081815260200182805460018160011615610100020316600290048015610a945780601f10610a6957610100808354040283529160200191610a94565b820191906000526020600020905b815481529060010190602001808311610a7757829003601f168201915b5050505050908060020154908060030154905084565b60016000815480929190600101919050555060405180608001604052803373ffffffffffffffffffffffffffffffffffffffff1681526020016040518060400160405280600381526020017f4e2f410000000000000000000000000000000000000000000000000000000000815250815260200160008152602001600081525060026000600154815260200190815260200160002060008201518160000160006101000a81548173ffffffffffffffffffffffffffffffffffffffff021916908373ffffffffffffffffffffffffffffffffffffffff1602179055506020820151816001019080519060200190610ba2929190610cdc565b5060408201518160020155606082015181600301559050507febd4e69fabd1bc29f41ce95a5c62ea9fdffeddd6fab49a3aba9f0cbf87c518a860015433600080604051808581526020018473ffffffffffffffffffffffffffffffffffffffff1673ffffffffffffffffffffffffffffffffffffffff16815260200180602001848152602001838152602001828103825260038152602001807f4e2f4100000000000000000000000000000000000000000000000000000000008152506020019550505050505060405180910390a1565b60015481565b6000809054906101000a900473ffffffffffffffffffffffffffffffffffffffff1681565b6040518060800160405280600073ffffffffffffffffffffffffffffffffffffffff1681526020016060815260200160008152602001600081525090565b828054600181600116156101000203166002900490600052602060002090601f016020900481019282601f10610d1d57805160ff1916838001178555610d4b565b82800160010185558215610d4b579182015b82811115610d4a578251825591602001919060010190610d2f565b5b509050610d589190610d5c565b5090565b610d7e91905b80821115610d7a576000816000905550600101610d62565b5090565b9056fea265627a7a72315820265bb802179cbd83688cefe02d4de64491fbaba26490ac75d08ae2a2f865741564736f6c63430005100032",
  "source": "pragma solidity ^0.5.0;\r\n\r\ncontract Hydrochain {\r\n    address payable public admin = 0x9726aE8E5a253cC42665aB37F8d3364a261323f4;\r\n    uint public uCount=0;\r\n    mapping(uint => User) public users;\r\n\r\n    struct User {\r\n        address payable userAddress;\r\n        string lastDate;\r\n        uint tunits;\r\n        uint cunits;\r\n    }\r\n\r\n    event userInitialized(\r\n        uint id,\r\n        address payable userAddress, \r\n        string lastDate,\r\n        uint tunits,\r\n        uint cunits\r\n    );\r\n\r\n    event unitsAdded (\r\n        address payable userAddress, \r\n        uint tunits,\r\n        uint cunits\r\n    );\r\n\r\n    event billPaid (\r\n        address payable deployer,\r\n        address payable user,\r\n        string lastDate,\r\n        uint amount\r\n    );\r\n\r\n    function initializeUser() public {\r\n        uCount++;\r\n        users[uCount] = User(msg.sender, \"N/A\", 0, 0);\r\n        emit userInitialized(uCount, msg.sender, \"N/A\", 0, 0);\r\n    }\r\n\r\n    function addUnit(uint _units) public {\r\n        require(_units >= 0);\r\n        uint _i;\r\n        User memory _user;\r\n        for(_i=1;_i<=uCount;++_i)\r\n            if(users[_i].userAddress==msg.sender){\r\n                _user=users[_i];\r\n                break;\r\n            }\r\n        if(_units > _user.tunits) {\r\n            _user.cunits += _units - _user.tunits;\r\n            _user.tunits = _units;\r\n        }\r\n        users[_i] = _user;\r\n        emit unitsAdded(msg.sender,_units,_user.cunits);\r\n    }\r\n\r\n    function payBill(string memory _date) public payable {\r\n        address payable _deployer = admin;\r\n        address(_deployer).transfer(msg.value);\r\n        uint _i;\r\n        User memory _user;\r\n        for(_i=1;_i<=uCount;++_i)\r\n            if(users[_i].userAddress==msg.sender){\r\n                _user=users[_i];\r\n                break;\r\n            }\r\n        _user.cunits=0;\r\n        _user.lastDate=_date;\r\n        users[_i] = _user;\r\n        emit billPaid(_deployer,msg.sender,_date,msg.value);\r\n    }\r\n}\r\n",
  "sourcePath": "E:\\CS\\Hackathons\\Devfolio online\\HackInOut\\new\\Hydro-chain\\Hydro-chain DApp\\src\\contracts\\Hydrochain.sol",
  "compiler": {
    "name": "solc",
    "version": "0.5.16+commit.9c3226ce.Emscripten.clang"
  },
  "schemaVersion": "3.2.0",
  "updatedAt": "2020-12-19T10:17:28.927Z",
  "networkType": "ethereum",
  "devdoc": {
    "methods": {}
  },
  "userdoc": {
    "methods": {}
  }
}