{
  "contractName": "Hydrochain",
  "abi": [
    {
      "anonymous": false,
      "inputs": [
        {
          "indexed": false,
          "internalType": "address payable",
          "name": "deployer",
          "type": "address"
        },
        {
          "indexed": false,
          "internalType": "address payable",
          "name": "user",
          "type": "address"
        },
        {
          "indexed": false,
          "internalType": "uint256",
          "name": "amount",
          "type": "uint256"
        }
      ],
      "name": "billPaid",
      "type": "event"
    },
    {
      "anonymous": false,
      "inputs": [
        {
          "indexed": false,
          "internalType": "address payable",
          "name": "userAddress",
          "type": "address"
        },
        {
          "indexed": false,
          "internalType": "uint256",
          "name": "tunits",
          "type": "uint256"
        },
        {
          "indexed": false,
          "internalType": "uint256",
          "name": "cunits",
          "type": "uint256"
        }
      ],
      "name": "unitsAdded",
      "type": "event"
    },
    {
      "anonymous": false,
      "inputs": [
        {
          "indexed": false,
          "internalType": "uint256",
          "name": "id",
          "type": "uint256"
        },
        {
          "indexed": false,
          "internalType": "address payable",
          "name": "userAddress",
          "type": "address"
        },
        {
          "indexed": false,
          "internalType": "uint256",
          "name": "tunits",
          "type": "uint256"
        },
        {
          "indexed": false,
          "internalType": "uint256",
          "name": "cunits",
          "type": "uint256"
        }
      ],
      "name": "userInitialized",
      "type": "event"
    },
    {
      "constant": true,
      "inputs": [],
      "name": "admin",
      "outputs": [
        {
          "internalType": "address payable",
          "name": "",
          "type": "address"
        }
      ],
      "payable": false,
      "stateMutability": "view",
      "type": "function"
    },
    {
      "constant": true,
      "inputs": [],
      "name": "uCount",
      "outputs": [
        {
          "internalType": "uint256",
          "name": "",
          "type": "uint256"
        }
      ],
      "payable": false,
      "stateMutability": "view",
      "type": "function"
    },
    {
      "constant": true,
      "inputs": [
        {
          "internalType": "uint256",
          "name": "",
          "type": "uint256"
        }
      ],
      "name": "users",
      "outputs": [
        {
          "internalType": "address payable",
          "name": "userAddress",
          "type": "address"
        },
        {
          "internalType": "uint256",
          "name": "tunits",
          "type": "uint256"
        },
        {
          "internalType": "uint256",
          "name": "cunits",
          "type": "uint256"
        }
      ],
      "payable": false,
      "stateMutability": "view",
      "type": "function"
    },
    {
      "constant": false,
      "inputs": [],
      "name": "initializeUser",
      "outputs": [],
      "payable": false,
      "stateMutability": "nonpayable",
      "type": "function"
    },
    {
      "constant": false,
      "inputs": [
        {
          "internalType": "uint256",
          "name": "_units",
          "type": "uint256"
        }
      ],
      "name": "addUnit",
      "outputs": [],
      "payable": false,
      "stateMutability": "nonpayable",
      "type": "function"
    },
    {
      "constant": false,
      "inputs": [],
      "name": "payBill",
      "outputs": [],
      "payable": true,
      "stateMutability": "payable",
      "type": "function"
    }
  ],
  "bytecode": "0x6080604052739726ae8e5a253cc42665ab37f8d3364a261323f46000806101000a81548173ffffffffffffffffffffffffffffffffffffffff021916908373ffffffffffffffffffffffffffffffffffffffff160217905550600060015534801561006957600080fd5b506108c9806100796000396000f3fe6080604052600436106100555760003560e01c8063341dc9f31461005a578063365b98b2146100955780634b3538881461011e5780637a781658146101355780637bc8924b1461013f578063f851a4401461016a575b600080fd5b34801561006657600080fd5b506100936004803603602081101561007d57600080fd5b81019080803590602001909291905050506101c1565b005b3480156100a157600080fd5b506100ce600480360360208110156100b857600080fd5b8101908080359060200190929190505050610406565b604051808473ffffffffffffffffffffffffffffffffffffffff1673ffffffffffffffffffffffffffffffffffffffff168152602001838152602001828152602001935050505060405180910390f35b34801561012a57600080fd5b50610133610450565b005b61013d610588565b005b34801561014b57600080fd5b50610154610832565b6040518082815260200191505060405180910390f35b34801561017657600080fd5b5061017f610838565b604051808273ffffffffffffffffffffffffffffffffffffffff1673ffffffffffffffffffffffffffffffffffffffff16815260200191505060405180910390f35b60008110156101cf57600080fd5b60006101d961085d565b600191505b60015482116102eb573373ffffffffffffffffffffffffffffffffffffffff166002600084815260200190815260200160002060000160009054906101000a900473ffffffffffffffffffffffffffffffffffffffff1673ffffffffffffffffffffffffffffffffffffffff1614156102e057600260008381526020019081526020016000206040518060600160405290816000820160009054906101000a900473ffffffffffffffffffffffffffffffffffffffff1673ffffffffffffffffffffffffffffffffffffffff1673ffffffffffffffffffffffffffffffffffffffff1681526020016001820154815260200160028201548152505090506102eb565b8160010191506101de565b80602001518311156103185780602001518303816040018181510191508181525050828160200181815250505b806002600084815260200190815260200160002060008201518160000160006101000a81548173ffffffffffffffffffffffffffffffffffffffff021916908373ffffffffffffffffffffffffffffffffffffffff16021790555060208201518160010155604082015181600201559050507fb726d633763890959f84370289b530da7d8a9557dcf86d879616175b5028c83f33848360400151604051808473ffffffffffffffffffffffffffffffffffffffff1673ffffffffffffffffffffffffffffffffffffffff168152602001838152602001828152602001935050505060405180910390a1505050565b60026020528060005260406000206000915090508060000160009054906101000a900473ffffffffffffffffffffffffffffffffffffffff16908060010154908060020154905083565b60016000815480929190600101919050555060405180606001604052803373ffffffffffffffffffffffffffffffffffffffff16815260200160008152602001600081525060026000600154815260200190815260200160002060008201518160000160006101000a81548173ffffffffffffffffffffffffffffffffffffffff021916908373ffffffffffffffffffffffffffffffffffffffff16021790555060208201518160010155604082015181600201559050507ffb40e81b4943c144acfb5c456ea50bf2a25d6f78a23bb5b22aa640a351ba377360015433600080604051808581526020018473ffffffffffffffffffffffffffffffffffffffff1673ffffffffffffffffffffffffffffffffffffffff16815260200183815260200182815260200194505050505060405180910390a1565b60008060009054906101000a900473ffffffffffffffffffffffffffffffffffffffff1690508073ffffffffffffffffffffffffffffffffffffffff166108fc349081150290604051600060405180830381858888f193505050501580156105f4573d6000803e3d6000fd5b5060006105ff61085d565b600191505b6001548211610711573373ffffffffffffffffffffffffffffffffffffffff166002600084815260200190815260200160002060000160009054906101000a900473ffffffffffffffffffffffffffffffffffffffff1673ffffffffffffffffffffffffffffffffffffffff16141561070657600260008381526020019081526020016000206040518060600160405290816000820160009054906101000a900473ffffffffffffffffffffffffffffffffffffffff1673ffffffffffffffffffffffffffffffffffffffff1673ffffffffffffffffffffffffffffffffffffffff168152602001600182015481526020016002820154815250509050610711565b816001019150610604565b6000816040018181525050806002600084815260200190815260200160002060008201518160000160006101000a81548173ffffffffffffffffffffffffffffffffffffffff021916908373ffffffffffffffffffffffffffffffffffffffff16021790555060208201518160010155604082015181600201559050507fc217499589f3ec1d5b2891594c80d8e6493c0ea24a503908b460cc5a806e9f69833334604051808473ffffffffffffffffffffffffffffffffffffffff1673ffffffffffffffffffffffffffffffffffffffff1681526020018373ffffffffffffffffffffffffffffffffffffffff1673ffffffffffffffffffffffffffffffffffffffff168152602001828152602001935050505060405180910390a1505050565b60015481565b6000809054906101000a900473ffffffffffffffffffffffffffffffffffffffff1681565b6040518060600160405280600073ffffffffffffffffffffffffffffffffffffffff1681526020016000815260200160008152509056fea265627a7a72315820659e41e33e5c28affc571592518a03af5e50a389e9b570314a765bfaad20a25464736f6c63430005100032",
  "source": "pragma solidity ^0.5.0;\r\n\r\ncontract Hydrochain {\r\n    address payable public admin = 0x9726aE8E5a253cC42665aB37F8d3364a261323f4;\r\n    uint public uCount=0;\r\n    mapping(uint => User) public users;\r\n\r\n    struct User {\r\n        address payable userAddress;\r\n        uint tunits;\r\n        uint cunits;\r\n    }\r\n\r\n    event userInitialized(\r\n        uint id,\r\n        address payable userAddress, \r\n        uint tunits,\r\n        uint cunits\r\n    );\r\n\r\n    event unitsAdded (\r\n        address payable userAddress, \r\n        uint tunits,\r\n        uint cunits\r\n    );\r\n\r\n    event billPaid (\r\n        address payable deployer,\r\n        address payable user,\r\n        uint amount\r\n    );\r\n\r\n    function initializeUser() public {\r\n        uCount++;\r\n        users[uCount] = User(msg.sender, 0, 0);\r\n        emit userInitialized(uCount, msg.sender, 0, 0);\r\n    }\r\n\r\n    function addUnit(uint _units) public {\r\n        require(_units >= 0);\r\n        uint _i;\r\n        User memory _user;\r\n        for(_i=1;_i<=uCount;++_i)\r\n            if(users[_i].userAddress==msg.sender){\r\n                _user=users[_i];\r\n                break;\r\n            }\r\n        if(_units > _user.tunits) {\r\n            _user.cunits += _units - _user.tunits;\r\n            _user.tunits = _units;\r\n        }\r\n        users[_i] = _user;\r\n        emit unitsAdded(msg.sender,_units,_user.cunits);\r\n    }\r\n\r\n    function payBill() public payable {\r\n        address payable _deployer = admin;\r\n        address(_deployer).transfer(msg.value);\r\n        uint _i;\r\n        User memory _user;\r\n        for(_i=1;_i<=uCount;++_i)\r\n            if(users[_i].userAddress==msg.sender){\r\n                _user=users[_i];\r\n                break;\r\n            }\r\n        _user.cunits=0;\r\n        users[_i] = _user;\r\n        emit billPaid(_deployer,msg.sender,msg.value);\r\n    }\r\n}\r\n",
  "sourcePath": "E:\\CS\\Hackathons\\Devfolio online\\HackInOut\\new\\Hydro-chain\\Hydro-chain DApp\\src\\contracts\\Hydrochain.sol",
  "compiler": {
    "name": "solc",
    "version": "0.5.16+commit.9c3226ce.Emscripten.clang"
  },
  "schemaVersion": "3.2.0",
  "updatedAt": "2020-12-19T07:26:02.879Z",
  "networkType": "ethereum",
  "devdoc": {
    "methods": {}
  },
  "userdoc": {
    "methods": {}
  }
}